:020000040800F2
:100000000050002021020008270200082B020008EF
:1000100043020008470200085F02000800000000D9
:10002000000000000000000000000000770200084F
:100030007B020008000000007F0200084D08000855
:100040009102000891020008910200089102000844
:100050009102000891020008910200089102000834
:100060009102000891020008910200089102000824
:100070009102000891020008910200089102000814
:100080009102000891020008910200089102000804
:1000900091020008910200089102000891020008F4
:1000A00091020008910200089102000891020008E4
:1000B00091020008910200089102000891020008D4
:1000C00091020008910200089102000891020008C4
:1000D00091020008910200089102000891020008B4
:1000E000910200089102000891020008000000003F
:1000F0000000000000000000000000000000000000
:1001000000000000000000005FF808F100B583B0B7
:1001100000F0DEF8304B314A1360314A1360314B46
:10012000314A03E052F8041B43F8041B2F498B4269
:10013000F8D32A4B1A682E4B9A4200D0FEE7284B80
:100140001A682C4B9A42F9D1234B2B4A13602B4A45
:1001500013602B4B02E0002243F8042B294A934200
:10016000F9D3254B1B6813B9244B1B6803B1FEE779
:1001700000F0BAF8694601A800F0A2F8224C234B1F
:10018000E41AA410002504E0204B53F825309847CA
:100190000135AC42F8DC1E4C1E4BE41AA4100025BD
:1001A00004E01C4B53F8253098470135AC42F8DC8D
:1001B0000099019800F0ACFB0546174C174BE41A68
:1001C000A41004E0013C154B53F824309847002C50
:1001D000F8DC284600F072F8BABADECA0000002047
:1001E0002800002000000020E00900082C0000206A
:1001F00078563412325476982C000020700100207A
:100200002C00002074010020BC020008BC02000881
:10021000BC020008BC020008BC020008BC020008C6
:1002200008B5FFF773FF00BEFEE71EF0040F0CBF1A
:10023000EFF30880EFF309807146124A104700BEC1
:10024000FEE700BEFEE71EF0040F0CBFEFF30880D0
:10025000EFF3098071460C4A104700BEFEE71EF01E
:10026000040F0CBFEFF30880EFF309807146074AD3
:10027000104700BEFEE700BEFEE700BEFEE700BE80
:10028000FEE770473F0200085B02000873020008A7
:0402900000BEFEE7C7
:10029400E0090008000000202C000020E00900080C
:1002A40000000000000000002C0000207401002069
:0802B400000000000000000042
:1002BC00FEE7000001230360014B0B60704700BF99
:1002CC000400002008B500F073F8024A024B9A6053
:1002DC0008BD00BF0000000800ED00E008B500F00C
:1002EC008FF808BD82B00023019300932C4A136849
:1002FC0043F4803313602A4B1B6803F400330093E0
:10030C00019B01330193009B1BB9019BB3F5A06FBB
:10031C00F1D1234B1B6813F4003F06D0012300934B
:10032C00009B012B04D002B0704700230093F7E729
:10033C001C4B1A6842F010021A601A6822F0030271
:10034C001A601A6842F002021A60A3F580535A68C8
:10035C005A605A685A605A6842F480625A605A6805
:10036C0022F47C125A605A6842F4E8125A601A68F5
:10037C0042F080721A600A4B1B6813F0007FFAD0AF
:10038C00074B5A6822F003025A605A6842F0020284
:10039C005A60034B5B6803F00C03082BF9D1C2E7DE
:1003AC00001002400020024008B5FFF79BFF08BD7B
:1003BC0008B5104B1A6842F001021A6059680E4ACF
:1003CC000A405A601A6822F0847222F480321A6051
:1003DC001A6822F480221A605A6822F4FE025A60CB
:1003EC004FF41F029A60FFF7DFFF044B4FF00062DF
:1003FC009A6008BD001002400000FFF800ED00E01C
:10040C001F4B5B6803F00C03042B15D0082B17D083
:10041C001BB11C4B1C4A1A6002E01A4B1A4A1A6098
:10042C00174B5B68C3F30313184AD35CDAB2154954
:10043C000B68D3400B607047124B134A1A60EFE7FE
:10044C000F4A53685268C3F38343023312F4803F5C
:10045C0005D10F4A02FB03F30A4A1360E0E7084A8E
:10046C00526812F4003F05D0094A02FB03F3054A17
:10047C001360D5E7044A02FB03F3024A1360CFE78B
:10048C00001002401C00002000127A000C0000201A
:10049C0000093D0010B401282DD0022854D008B119
:1004AC0010BC7047072910D889000F2303FA01FCF0
:1004BC003748D0F8003823EA0C03C0F8003802FAA9
:1004CC0001F11943C0F80018EAE70F29E8D8A1F1A7
:1004DC000800C0B283000F2101FA03F42C48D0F8B5
:1004EC00041821EA0401C0F8041802FA03F30B43C0
:1004FC00C0F80438D4E7072910D889000F2303FA71
:10050C0001FC2348D0F8003C23EA0C03C0F8003C63
:10051C0002FA01F11943C0F8001CC1E70F29BFD83A
:10052C00A1F10800C0B283000F2101FA03F41848AE
:10053C00D0F8041C21EA0401C0F8041C02FA03F3ED
:10054C000B43C0F8043CABE707290DD889000F23F7
:10055C0003FA01FC0F48036823EA0C03036002FA58
:10056C0001F1194301609BE70F2999D8A1F1080308
:10057C00DBB29B000F2000FA03F1064C606820EA06
:10058C000100606002FA03F10143616088E700BF7B
:10059C000000014000100140154BDB6813F0010F07
:1005AC00FAD1134B1B6913F0800F05D0104B114A75
:1005BC005A6002F188325A600D4A136943F0020303
:1005CC001361830203F100635361136943F0400329
:1005DC001361074BDB6813F0010FFAD1044BDA6897
:1005EC0042F02002DA601A6922F002021A617047A6
:1005FC00002002402301674510B5042404E0204686
:10060C00FFF7CAFF0134E4B23F2CF8D910BD00004B
:10061C0000B583B096461A4BDB6813F0010FFAD184
:10062C00174B1B6913F0800F05D0154B154A5A60F8
:10063C0002F188325A604FF0000C1CE0104A13692A
:10064C0043F00103136131F81C30ADF8063020F88B
:10065C00023B0B4BDB6813F0010FFAD1084BDA6845
:10066C0042F02002DA601A6922F001021A610CF1E0
:10067C00010C5FFA8CFCF445E0D303B05DF804FB8D
:10068C0000200240230167450246A0F13003D8B296
:10069C00092802D9A2F13700C0B270472DE9F04FFA
:1006AC0083B080464078FFF7EFFF834698F802004E
:1006BC00FFF7EAFF40EA0B1B5FFA8BFB98F803008D
:1006CC00FFF7E2FF044698F80400FFF7DDFF05464C
:1006DC0098F80500FFF7D8FF064698F80600FFF7D4
:1006EC00D3FF244A53881B041360034343EA0613C5
:1006FC0043EA052343EA04330193136000273E4683
:10070C002BE0B50005F1090318F80300FFF7BCFF57
:10071C00814605F10A0318F80300FFF7B5FF82467E
:10072C0005F10B0318F80300FFF7AEFF04460C3578
:10073C0018F80500FFF7A8FF240344EA002424B2AC
:10074C0044EA0A0A0FFA8AFA4AEA09190A4B23F808
:10075C0017900137FFB20136F6B24FEA5B02B6EBE7
:10076C005B0FCED304490198FFF752FF03B0BDE8ED
:10077C00F08F00BF200000203400002008B5037A61
:10078C00302B00D008BDFFF789FFFBE7024B81221D
:10079C001A6000225A607047001002401F2904D8CA
:1007AC0001280BD0022811D000B17047012303FAA5
:1007BC0001F10A4A53690B4353617047012303FA51
:1007CC0001F1064AD3690B43D3617047012303FA45
:1007DC0001F1024A93690B439361E6E70010024072
:1007EC004FF0E02300221A61704700004FF0E02325
:1007FC001A6922F001021A6100225A619A61586149
:10080C00186940F0010018610448016004490A703D
:10081C001A6942F002021A61704700BFFC00002006
:10082C00000100204FF0E0231A6922F002021A6145
:10083C001A6942F001021A6100225A619A617047EA
:10084C0008B50B4B1B7863B94FF0E0231A6922F003
:10085C0002021A611A6942F001021A6100225A61FD
:10086C009A61044B1B6898474FF0E0231B6908BD45
:10087C0000010020FC000020094B40F241329A603C
:10088C00DA6842F00802DA60DA6842F00402DA60F0
:10089C00DA6842F40052DA6000221A60704700BF36
:1008AC0000380140002208E006494B60054B1B68EC
:1008BC0013F0400FFAD00132D2B2835C002BF3D18B
:1008CC00704700BF00380140054B1B6813F0200F28
:1008DC0004D0034B5B680370012070470020704705
:1008EC000038014008B5054B4FF0E022C2F8083D36
:1008FC005B68034A1360984708BD00BF00100008EE
:10090C000401002008B5FFF741FF0E210220FFF77C
:10091C0045FF02210846FFF741FF04210020FFF7A5
:10092C003DFF0A2209210020FFF7B4FD04220A2111
:10093C000020FFF7AFFDFFF79FFFFFF751FF1D49A9
:10094C001D48FFF753FF1D4B1B78002B30D11C4B60
:10095C001B781C481844FFF7B7FF0128F3D1FFF7A9
:10096C0061FF174B1B78DBB2164AD35CDBB20A2B48
:10097C0009D0134A13780133DBB213700D490E48BA
:10098C00FFF734FFDFE7104B1B78DBB2012B09D0EC
:10099C000C48FFF7F3FE0D48FFF784FF084B0022CD
:1009AC001A70EBE7FFF728FE074B00221A70EFE7EF
:1009BC0008BD00BFF1080008C0E1E4006D01002093
:1009CC006C0100200801002024000020DC09000834
:0309DC006F6B003E
:1009E00078563412300000200000000000000000A3
:1009F00000000000010203040607080900A24A04DF
:0C0A00000000000801FFFFFF3254769850
:040000050800010DE1
:00000001FF
